:020000040800F2
:100000004807002029020008DF160008A315000891
:10001000DD160008490500084F1A0008000000001E
:10002000000000000000000000000000E3160008CF
:100030004B05000800000000E1160008E516000866
:10004000430200084302000843020008430200087C
:10005000430200084302000843020008430200086C
:10006000430200084302000843020008430200085C
:10007000430200084302000843020008430200084C
:10008000430200084302000843020008430200083C
:10009000430200084302000843020008430200082C
:1000A000430200084302000843020008430200081C
:1000B000430200084302000843020008430200080C
:1000C00043020008430200084302000843020008FC
:1000D00043020008430200084302000843020008EC
:1000E00043020008430200084302000843020008DC
:1000F00043020008430200084302000843020008CC
:1001000043020008430200084302000843020008BB
:1001100043020008430200088D170008430200084C
:10012000430200084302000843020008430200089B
:10013000430200084302000843020008430200088B
:10014000430200084302000843020008430200087B
:10015000430200084302000843020008430200086B
:10016000430200084302000843020008430200085B
:100170004302000843020008430200080000000098
:10018000430200084302000800F002F800F03CF8C7
:100190000AA090E8000C82448344AAF10107DA45E2
:1001A00001D100F031F8AFF2090EBAE80F0013F0F8
:1001B000010F18BFFB1A43F001031847EC180000A9
:1001C0000C190000103A24BF78C878C1FAD8520739
:1001D00024BF30C830C144BF04680C6070470000C1
:1001E0000023002400250026103A28BF78C1FBD840
:1001F000520728BF30C148BF0B6070471FB501F0E0
:1002000042FC1FBD10B510BD00F0CFF81146FFF73E
:10021000F5FF01F02DFC00F0EDF803B4FFF7F2FF5D
:1002200003BC00F0F5F80000094880470948004782
:10023000FEE7FEE7FEE7FEE7FEE7FEE7FEE7FEE796
:10024000FEE7FEE704480549054A064B70470000F3
:100250007D17000889010008480100204807002098
:10026000480300204803002053EA020C00F0698094
:100270002DE9F04B4FF00006002B1FBFB3FA83F5BA
:1002800003FA05F424FA05F65E4012BF1643B2FAEB
:1002900082F502FA05F4C5F120051EBF22FA05FC1D
:1002A00044EA0C04203556EA044C4FEA144418BFC3
:1002B000641C4FF000084FF00009904271EB030CF2
:1002C00039D3002919BFB1FA81F701FA07F6B0FA5C
:1002D00080F700FA07F6C7F120071EBF20FA07FCD7
:1002E00046EA0C062037B6FBF4FCA7EB0507103FE7
:1002F00007F01F0BCBF120060CFA0BFB2CFA06F6CD
:1003000044BFB3460026202FA4BF5E464FF0000B2B
:100310005BEA060C08BF4FF0010B19EB0B09ABFBB6
:10032000027C48EB0608C01B06FB02CC0BFB03CC8F
:1003300071EB0C01C1E70B46024641464846BDE859
:10034000F08B13B54FF000004FF00001AFF30080C9
:10035000BDE81C4070474FF0000200B513469446BC
:100360009646203922BFA0E80C50A0E80C50B1F10D
:100370002001BFF4F7AF090728BFA0E80C5048BF21
:100380000CC05DF804EB890028BF40F8042B08BFBF
:10039000704748BF20F8022B11F0804F18BF00F8BB
:1003A000012B7047704770477047754600F02CF876
:1003B000AE4605006946534620F00700854618B052
:1003C00020B5FFF73FFFBDE820404FF000064FF09B
:1003D00000074FF000084FF0000B21F00701AC467A
:1003E000ACE8C009ACE8C009ACE8C009ACE8C00999
:1003F0008D46704710B50446AFF300802046BDE837
:100400001040FFF70ABF000000487047E8000020D6
:1004100001491820ABBEFEE726000200704700002D
:10042000464910B54A6822F440324A604A68436837
:100430001A434A6001684A6822F480724A6001687F
:100440004A68036942EA03224A6001684A6822F066
:1004500040724A6001684A6883681A434A600168CA
:100460008A6822F400628A6001688A68C3681A4355
:100470008A60816A6FF07062D14201688A6822F0F6
:1004800070628A6001688A680CD0836A1A438A6045
:1004900001688A6822F040528A6001688A68C36AEB
:1004A0001A4301E022F040528A6001688A6822F013
:1004B00002028A6001688A68037E42EA43028A6017
:1004C00090F82010002901684A680FD042F40062B9
:1004D0004A6001684A6822F460424A6001684A68DA
:1004E000174C436A04EB43331A4301E022F40062E1
:1004F0004A600168CA6A22F47002CA620168CA6A64
:10050000838B104C04EB03531A43CA6201688A6858
:1005100022F400728A6001688A6890F8303042EAFA
:1005200043228A6001688A6822F480628A600168D6
:100530008A68406942EA8020886010BD002301403B
:1005400000E0FFFF0000F0FFFEE7704772B6FEE735
:1005500078B50024009490F83C20012A19D001229B
:1005600080F83C200A6807230568092A13D9EE6839
:100570000A3A02EB420293409E43EE600B788A688F
:100580000A3B03EB43039A400368DD682A43DA60C1
:1005900010E0022078BD2E6902EB420293409E4398
:1005A0002E610B788A6803EB43039A4003681D6948
:1005B0002A431A614A681F23072A13D205686E6B03
:1005C000521E02EB820293409E436E630B790A88AF
:1005D0005B1E92B203EB83039A4003685D6B2A4370
:1005E0005A6327E005680D2A12D22E6BD21F02EB48
:1005F000820293409E432E630B790A88DB1F92B2DE
:1006000003EB83039A4003681D6B2A431A6311E0CE
:10061000EE6A0D3A02EB820293409E43EE620B7942
:100620000A880D3B92B203EB83039A400368DD6AAC
:100630002A43DA62164B0568144A9D4206D10D68BA
:10064000122D03D1556845F48005556005689D421B
:1006500018D10B68102B01D0112B13D1536843F420
:1006600000035360096810290CD10A490A4A096835
:10067000B1FBF2F101EB8101490000E0491E00915C
:100680000029FBD180F83C40002078BD00230140C8
:10069000002001400C00002040420F0070B5040013
:1006A0004FF0000503D0206C002610B107E00120B8
:1006B00070BD204600F01CF8666484F83C60206C35
:1006C000C00610D4206C20F4885040F00200206452
:1006D0002046FFF7A5FE6664206C20F0020040F083
:1006E0000100206400E0012584F83C60284670BDCC
:1006F00010B586B0044614216846FFF72CFE114958
:10070000206888421CD110480021026842F480729F
:100710000260006800F4807005900B48143802688D
:1007200042F001020260006800F001000590012023
:1007300000900320CDE901016946044800F008F863
:1007400006B010BD002001404438024000000240C5
:100750002DE9F84FDFF8BCA10022012503264FF058
:100760000F090AF1040BAAF1040E00BF0B6805FA89
:1007700002F42340A34270D10F7907F00307012F41
:1007800001D0022F16D187684FEA420806FA08FC0A
:1007900027EA0C07D1F80CC00CFA08FC4CEA070C4D
:1007A000C0F808C04768A7430C79C4F3001494400C
:1007B0003C4344600C79E443A4070AD0C4684FEA80
:1007C000420C06FA0CF7BC438F6807FA0CF7274374
:1007D000C7600C7904F00304022C12D1D40800EB9A
:1007E000840CDCF820405707FF0E09FA07F824EACA
:1007F0000804D1F8108008FA07F848EA0408CCF891
:10080000208004684FEA420C06FA0CF7BC430F79CB
:1008100007F0030707FA0CF7274307604C6814F446
:10082000403F70D03C4C276847F4804727602468DD
:1008300022F0030704F480440094384C07EB040CC6
:10084000DCF8084897074FEA177809FA08F7BC431D
:10085000334FB84202D1002724E054E0314FB84270
:1008600001D101271EE0304FB84201D1022719E023
:100870002E4FB84201D1032714E02D4FB84201D1C9
:1008800004270FE02B4FB84201D105270AE02A4F79
:10089000B84201D1062705E0284FB84201D1072709
:1008A00000E0082707FA08F72743CCF80878DAF8B9
:1008B00000405746D1F804C09C435FEACC2C00D5D9
:1008C0001C433C60DBF800405F46D1F804C09C4309
:1008D0005FEA8C2C00D51C433C60DEF80040774674
:1008E000D1F804C09C435FEA8C3C00D51C433C60BB
:1008F000084F083F3C68D1F804C09C435FEACC3CF9
:1009000000D51C433C60521C102AFFF42FAFBDE8F9
:10091000F88F0000083C014044380240003001409C
:10092000000002400004024000080240000C0240A7
:10093000001002400014024000180240001C024057
:10094000014880687047000000000020024881686C
:100950000278114481607047000000200B4810B5F8
:10096000016841F400710160016841F48061016037
:10097000016841F480710160032000F09BF80F20B2
:1009800000F006F800F050F8002010BD003C0240D6
:1009900030B505461F4887B00024016841F01001BA
:1009A0000160006806A900F01000009001A800F0A6
:1009B0002DF90498A8B100F049F940001649174AEA
:1009C000B0FBF1F11648491E026040F2E732C0E97F
:1009D0000324C0E90114846100F078FB040003D013
:1009E00015E000F033F9E9E70D4800F0AFFB040033
:1009F0000DD1362000F030F8102D07D20022294604
:100A0000362000F037F80748056000E0012407B001
:100A1000204630BD4038024040420F0000100040E8
:100A2000A0000020040000200A4808B5016841F435
:100A300080410160006800F4804000900548001F7C
:100A4000016841F080510160006800F08050009022
:100A500008BD000044380240002809DB00F01F02F6
:100A6000012191404009800000F1E020C0F8001110
:100A700070470000F0B40E4B1B680C46C3F3022312
:100A8000C3F10705042D00D90425191D072901D23A
:100A9000002300E0DB1E012606FA05F1491E214075
:100AA00099409E40761E16403143F0BC00F0D0BF06
:100AB0000CED00E0064900F0070208684FF6FF035E
:100AC000184040EA0220034A1043086070470000C3
:100AD0000CED00E00000FA052DE9F0470E46050098
:100AE00065D0DFF81481D8F80000F7B200F00700F5
:100AF000B04207D288F80070D8F8000000F0070074
:100B0000B04254D128683D4C810712D5400703D527
:100B1000206840F4E05020602878000703D5206862
:100B200040F4604020602068A96820F0F00008438D
:100B300020602878C0072DD030496868083901281E
:100B400012D0022813D0032811D009688907002980
:100B50002DDA216821F0030101432160FFF7F0FE47
:100B6000814641F2883A0EE009688903EFE7096897
:100B70008901ECE7FFF7E4FEA0EB0901514502D93A
:100B80000320BDE8F0872068696800F00C00B0EB36
:100B9000810FEFD1D8F80010404601F00701B142B3
:100BA00007D90770006800F00700B04201D00120AB
:100BB000E7E72878400705D52068E96820F4E05089
:100BC000084320602878000706D52068296920F4AA
:100BD000604040EAC100206000F048F82168084AFF
:100BE000C1F30311515CC84006490860064800681B
:100BF000FFF7CEFE0020C4E7003C02400838024068
:100C0000901A00080C000020040000200F2202604F
:100C10000C4A136803F003034360136803F0F00306
:100C20008360136803F4E053C36012684FF4E05329
:100C300003EAD20202610448006800F0070008607D
:100C40007047000008380240003C02400448054953
:100C500000680968044AC1F38221515CC8407047AA
:100C60000C00002008380240A01A0008154810B5F2
:100C7000006810F00C02144813D04110042A0FD061
:100C8000082A0ED10F4C241F2268236802F03F026D
:100C90005B0207D52068C0F38810A0FB010106E0C5
:100CA000084610BD2168C1F38811A1FB0001002393
:100CB000FFF7DAFA2168C1F30141491C4900B0FB92
:100CC000F1F010BD083802400024F4002DE9F84F7F
:100CD00004006ED02078DFF84C93C007A9F104051A
:100CE0004AD009F104000168C1F38101012908D04B
:100CF0000068C0F3810002280AD1D9F80000400240
:100D000006D52868800337D560680028E1D033E035
:100D10006068B0F5803F10D0B0F5A02F286810D0E3
:100D200020F480302860286820F4802028606068E3
:100D3000A8B1FFF705FE06460DE0286840F48030B4
:100D4000F4E740F480202860F7E700BFFFF7F8FDE4
:100D5000801B642873D828688003F7D50CE0FFF760
:100D6000EFFD064605E000BFFFF7EAFD801B6428A3
:100D7000F0D828688003F7D42078DFF8AC828007A9
:100D80004FF0000A3ED5A748001D016811F00C0F76
:100D900008D00068C0F3810002280BD1D9F8000008
:100DA000400207D42868800716D5E068012800D1E2
:100DB00012E033E1E068B8B10120C8F80000FFF7A5
:100DC000BFFD064605E000BFFFF7BAFD801B022805
:100DD000C0D828688007F7D52868216920F0F80076
:100DE00040EAC10028600DE0C8F800A0FFF7A8FDA8
:100DF000064604E0FFF7A4FD801B02281FD82868E0
:100E00008007F7D42078000722D5864F874861698C
:100E1000703771B101210160FFF792FD064604E0D1
:100E2000FFF78EFD801B022809D838688007F7D5A8
:100E30000EE0C0F800A0FFF783FD064605E082E063
:100E4000FFF77EFD801B02287DD838688007F7D425
:100E50002078400768D5DFF8CCB100270BF13C0BB8
:100E6000DBF80000C0000BD4DBF8001041F080512B
:100E7000CBF80010DBF80000012700F08050009054
:100E80006B4E3068C00510D4306840F4807030601C
:100E9000FFF756FD009005E0FFF752FD0099401A5C
:100EA000022850D83068C005F6D55E4EA0686C3672
:100EB00001280FD00528306810D020F001003060E4
:100EC000306820F004003060A068B8B1FFF738FD4A
:100ED00000900FE0306840F00100F4E740F00400BB
:100EE0003060F7E7FFF72CFD0099411A41F2883096
:100EF000814266D830688007F4D50EE0FFF720FD08
:100F0000009007E0FFF71CFD0099411A41F288307C
:100F1000814256D830688007F4D42FB1DBF8001036
:100F200021F08051CBF80010A069C8B33D49091DDC
:100F30000968C1F3810102294AD00228504607D02E
:100F4000C8F8600000E03CE0FFF7FAFC04463BE034
:100F50004746C8F86000FFF7F3FC064605E000BF0F
:100F6000FFF7EEFC801B02282BD828688001F7D4FD
:100F7000D4E907010843A16A2E4A490802EB01415E
:100F8000626A41EA8211084394F82C1040EA016138
:100F9000C9F8001001203866FFF7D2FC044606E0CD
:100FA0003EE000BFFFF7CCFC001B022809D82868F0
:100FB0008001F7D534E000BFFFF7C2FC001B022818
:100FC00002D90320BDE8F88F28688001F4D427E017
:100FD0000128F7D0D9F80000E26900F480019142BD
:100FE0001CD1226A00F03F01914217D147F6C0712F
:100FF000626A0140B1EB821F10D1A26A4FF0FF3349
:1010000000F4403103EB5202B1EB024F06D194F8E9
:101010002C1000F07060B0EB016F01D00120D1E71F
:101020000020CFE70438024000004742800E4742CC
:10103000007000400000FFFF7047704770B590F8E7
:101040003C20012A32D0012480F83C40022280F862
:101050003D2003685A689D6822F070060A68324392
:101060005A60134B02689A4214D0B2F1804F11D0EB
:10107000104B9A420ED0104B9A420BD00F4B9A4213
:1010800008D00F4B9A4205D00E4B9A4202D00E4B1D
:101090009A4204D1496825F080031943916080F891
:1010A0003D40002180F83C10084670BD022070BD14
:1010B000000001400004004000080040000C004017
:1010C00000040140004001400018004010B5040039
:1010D00003D094F83D0010B107E0012010BD0020BE
:1010E00084F83C00204600F01FF8022084F83D0000
:1010F000211D206800F050FB012084F8460084F890
:101100003E0084F83F0084F8400084F8410084F8F1
:10111000420084F8430084F8440084F8450084F8D1
:101120003D00002010BD000008B50068B0F1804F00
:1011300008D10548016841F001010160006800F034
:101140000100009008BD00004038024090F83D10BA
:10115000012901D001207047022180F83D1001686B
:10116000CA6842F00102CA6000681149884214D07E
:10117000B0F1804F11D00F4988420ED00E498842FD
:101180000BD00E49884208D00D49884205D00D4940
:10119000884202D00C49884204D1816801F00701DD
:1011A000062903D0016841F0010101600020704769
:1011B000000001400004004000080040000C004016
:1011C00000040140004001400018004070B5044692
:1011D00090F83C000025012817D0012684F83C60D7
:1011E000022084F83D002068826822F0770222F411
:1011F0007F4282600868502838D00DDC20284FD00C
:1012000005DC90B3102811D14AE0022070BD3028CF
:1012100046D040280AD13BE060282FD070280DD05E
:10122000B0F5805F03D0B0F5005F12D0012584F8DF
:101230003D60002084F83C00284670BDCB68D1E9B1
:101240000121206800F00CFB2068816841F07701E3
:1012500009E0CB68D1E90121206800F001FB20689A
:10126000816841F480418160E1E719E0CA6849681A
:10127000206800F0C9FB5021206806E0CA68496870
:10128000206800F0D2FB6021206800F0F3FACEE77E
:10129000CA684968206800F0B7FB40212068F4E77D
:1012A000226801461046F0E7704770B504460068B2
:1012B00001694FF00005C943890715D4C168C943C6
:1012C000890711D4E91E0161012020772068806917
:1012D0008007204602D0FFF7E7FF04E000F0C0F8E7
:1012E000204600F052F9257720680169C943490773
:1012F00017D4C168C943490713D46FF004010161D1
:10130000022020772068806910F4407F204602D0B8
:10131000FFF7CAFF04E000F0A3F8204600F035F91B
:10132000257720680169C943090716D4C168C943F4
:10133000090712D46FF008010161042020772068AA
:10134000C0698007204602D0FFF7AEFF04E000F03E
:1013500087F8204600F019F9257720680169C9430C
:10136000C90617D4C168C943C90613D46FF0100168
:101370000161082020772068C06910F4407F204672
:1013800002D0FFF791FF04E000F06AF8204600F079
:10139000FCF8257720680169C943C90708D1C168ED
:1013A000C943C90704D1891E0161204600F0EEF847
:1013B00020680169C943090609D4C168C9430906FF
:1013C00005D46FF0800101612046FFF735FE2068EB
:1013D0000169C943490609D4C168C943490605D40E
:1013E0006FF040010161204600F0DAF820680169E1
:1013F000C94389060BD4C168C943890607D46FF075
:10140000200101612046BDE87040FFF716BE70BDA7
:1014100010B586B0044614216846FEF79CFF20688C
:10142000B0F1804F15D10C480021026842F0010252
:101430000260006800F0010005902020009002206A
:10144000CDE901010120CDE9031069460348FFF70A
:101450007FF906B010BD00003038024000000240A5
:10146000704770B5044690F83C0000260D460128F0
:101470000FD0012084F83C006AB1042A1DD0082A4C
:101480002FD00C2A3FD00126002084F83C003046A3
:1014900070BD022070BD206800F0F4F920688169F9
:1014A00041F0080181612068816921F004018161B6
:1014B000206881692A69114311E0206800F012FA5E
:1014C0002068816941F4006181612068816921F4AB
:1014D00080618161206881692A6941EA0221816114
:1014E000D2E7206800F034FA2068C16941F00801B1
:1014F000C1612068C16921F00401C1612068C1692E
:101500002A69114311E0206800F056FA2068C16989
:1015100041F40061C1612068C16921F48061C16149
:101520002068C1692A6941EA0221C161ACE710B5AE
:10153000040003D094F83D0010B107E0012010BD75
:10154000002084F83C00204600F01EF8022084F8B9
:101550003D00211D206800F01FF9012084F846009D
:1015600084F83E0084F83F0084F8400084F841008D
:1015700084F8420084F8430084F8440084F845006D
:1015800084F83D00002010BD704770470068034993
:10159000884201D1FFF7DAB970470000001000401F
:1015A0007047FEE77FB5002415480094019402942B
:1015B0001249039401604FF48031C0E901140461C1
:1015C000047680F820400F49C0E90A140125C5615E
:1015D000C46080F830404561FFF760F808B1FEF75D
:1015E000B5FFCDE90045694605480294FEF7B0FF16
:1015F000002801D0FEF7AAFF7FBD000000200140B7
:10160000100000200100000F0D4808B5016841F0EE
:1016100004010160016801F004010091016841F0DA
:1016200080010160016801F080010091016841F0D2
:1016300001010160006800F00100009008BD000099
:101640003038024010B58EB00024079408940994F5
:101650000A940B941C2168460C94FEF77CFE1E48ED
:101660004FF0804101600121C0E9011440F247318F
:10167000C0E9031480218161FFF728FD08B1FEF75E
:1016800065FF4FF48050079007A91348FFF79EFDB0
:1016900008B1FEF75BFF1048FFF749FF08B1FEF7FE
:1016A00055FF0B940BA90C480C94FFF7C7FC08B12D
:1016B000FEF74CFF6020CDE9000402940022694649
:1016C00005480494FFF7CDFE08B1FEF73FFF02483E
:1016D000FFF79EFE0EB010BD58000020FEE7FEE7AB
:1016E000704770477047000030B593B030216846AE
:1016F000FEF731FE14210CA8FEF72DFE1D48002533
:10170000016841F080510160006800F08050119044
:101710001948016841F4804101600068022400F426
:101720008040119001200090000401908001CDE9DB
:10173000064008AA0420A82182E813000B906846FE
:10174000FFF7C4FA08B172B6FEE70CA90F2081E8D2
:1017500031004FF4A0500F904FF4805010900521AD
:101760000CA8FFF7B9F9002801D072B6FEE713B054
:1017700030BD00004038024000700040024801685F
:1017800041F470010160704788ED00E00148FFF707
:101790008CBD0000A0000020F0B50268254C264D4D
:1017A000264E274F274B4FF0804CA04209D0604572
:1017B00007D0A84205D0B04203D0B84201D0984229
:1017C00004D122F0700E4A6842EA0E02A0421BD0F9
:1017D000604519D0A84217D0B04215D0B84213D0F6
:1017E000984211D0184DA8420ED0184DA8420BD0E7
:1017F000174DA84208D0174DA84205D0164DA84253
:1018000002D0164DA84203D122F44075CA682A437B
:101810004D6922F080022A4302608A68C2620A6827
:101820008262A04201D0984201D10969016301217D
:101830004161F0BD0000014000040040000800408C
:10184000000C004000040140004001400044014001
:101850000048014000180040001C004000200040EB
:1018600010B5846842EA032224F47F440A432243E9
:10187000826010BD826822F070020A4342F00701C4
:1018800081607047F0B5026A22F001020262036AC9
:1018900042688469124E24F073050C682C4323F0CF
:1018A00002058B682B430D4DA84201D0B04205D1F3
:1018B00023F00807CB683B4323F00403A84201D080
:1018C000B04205D14D6922F4407215438A692A431A
:1018D00042608461496841630362F0BD00000140D9
:1018E00000040140F0B5026A22F010020262026AAE
:1018F000436884690D6824F4E64444EA05248D684D
:1019000022F0200242EA05120F4D104EA84201D0EB
:10191000B04206D1CF6822F0800242EA071222F0DC
:101920004002A84201D0B04207D14D6923F4406380
:1019300043EA85038D6943EA85034360846149680E
:1019400081630262F0BD000000000140000401401C
:10195000F0B5026A22F480720262026A4368C469C6
:1019600022F4007224F073050C68124E2C438D682B
:1019700042EA05220E4DA84201D0B04206D1CF68FE
:1019800022F4006242EA072222F48062A84201D0D7
:10199000B04207D14D6923F4405343EA05138D69E2
:1019A00043EA05134360C4614968C1630262F0BD44
:1019B000000001400004014030B5026A22F4805268
:1019C0000262046A4268C3690D6823F4E64343EA8D
:1019D00005238D6824F4005444EA0534084DA842D8
:1019E00002D0084DA84204D14D6922F4804242EA57
:1019F00085124260C36149680164046230BD000021
:101A0000000001400004014010B5036A046A24F09C
:101A100001040462846924F0F00444EA021423F00F
:101A20000A020A438461026210BD10B5036A23F002
:101A3000100303628369046A23F4704343EA0232A9
:101A400024F0A00343EA01118261016210BDFEE7A8
:101A50000907090E002804DB00F1E02080F80014DB
:101A6000704700F00F0000F1E02080F8141D70476F
:101A7000FEF774FFFFF738FEFFF7C6FDFFF792FD94
:101A8000FFF7E0FDFEE74FF04070E1EE100A70470F
:101A9000000000000000000001020304060708091E
:101AA0000000000001020304C81A00080000002022
:101AB00010000000C4010008D81A0008100000201F
:101AC00038070000E00100080100000010000000DD
:081AD000000000000024F400F6
:040000050800018965
:00000001FF
